:10110D008E1E8F1FD2A3120F6BC2A3AF1FAE1E0276
:02111D000F6B56
:0311FA00D2A3225B
:0E116C0081838587898B8D80828486888A8C1A
:090F4B000710003012010102132D
:100DA300E4FD7F8E120CB4E4F571E5719011739339
:100DB300FF74102571F8E6FD120CB40571E571C3DB
:0B0DC300940740E67D807F8E020CB498
:100540008B4D8A4E894F90116C120AB6AB4DAA4E54
:10055000A94FEF12004990116D120AB6AB4DAA4E89
:10056000A94F900001EF12005B90116EE493FF120F
:100570000AB9EF30E72130E5047E0280027E01AB4C
:100580004DAA4EA94F900007EE12005BEF24A05F2A
:10059000540F9000028011AB4DAA4EA94F90000756
:1005A000E412005B900002EF12005BAB4DAA4EA973
:1005B0004F900002EF12005B90116FE493FF120A5C
:1005C000B9AB4DAA4EA94F900003EF12005B9011FA
:1005D00070E493FF120AB9AB4DAA4EA94F900004E4
:1005E000EF12005B901171E493FF120AB9AB4DAAB0
:1005F0004EA94F900005EF12005B901172E493FF3B
:10060000120AB9AB4DAA4EA94F900006EF02005B4B
:100610008B508A518952120003FD120049901173C8
:10062000E493FF120CB4AB50AA51A95290000112EE
:10063000001C901174120CB0AB50AA51A95290003A
:100640000212001CFD90000712001C600D900007B4
:10065000740112005B7F00EF4205901175E493FF77
:10066000120CB4AB50AA51A95290000312001C9076
:100670001176120CB0AB50AA51A95290000412008E
:100680001CFD901177E493FF120CB4AB50AA51A952
:100690005290000512001CFD901178E493FF120C9B
:1006A000B4AB50AA51A95290000612001CFD75F07F
:1006B0000A8475F00A84AFF0ED75F00A84E5F02F36
:0D06C000C454F0FD901179E493FF020CB4D6
:040CB000FDE493FFCD
:100CB400C2A100C2A000D2A100E4FEEF1392A2EFF1
:100CC400C313FFD2A000C2A0000EBE08EEE4FEEDE6
:100CD4001392A2EDC313FDD2A000C2A0000EBE0861
:050CE400EEC2A1002298
:030AB600E493FFC7
:100AB900E4FEC2A100C2A000D2A1FDEF1392A2EFF1
:100AC900C313FFD2A000C2A0000DBD08EEE4FDA231
:100AD900A2E433FFA805088002C333D8FCFF42060D
:100AE900D2A000C2A0000DBD08E5C2A100D2A0009D
:090AF900C2A200D2A200AF062245
:1006CD008E0A8F0B7D037F02120D76E50AC4540F3F
:1006DD0030E0187F2D1211F5E50BF4FFE50AF4FE5D
:1006ED00EF2401F50BE43EF50A80057F2B1211F581
:1006FD00AC0AAD0BE4120392E4FBFA7920783F12B9
:10070D0001E71203CB8E0A8F0B7C037DE812007D6F
:10071D008F0CE50C60062430FF1211F5AE0AAF0BFD
:10072D007C007D6412007D7C007D0A12007D8D0CA5
:10073D00E50C2430FF1211F5AE0AAF0B7C007D0ADB
:10074D0012007D7C007D0A12007D8D0CE50C24309D
:10075D00FF1211F57F2E1211F5AE0AAF0B7C007D45
:10076D000A12007D8D0CE50C2430FF1211F57F204F
:03077D000211F571
:100D4900E4FFC2A2755AFB755904D559FDD55AF766
:100D590000D2A2755A01755926D559FDD55AF70001
:0D0D690020A2FD20A2047F0180F9D2A22269
:100E4D00E4FEC2A2755904D559FDEFA8060880022B
:100E5D00C313D8FC1392A27559A4D559FD00D2A283
:050E6D000EBE08DE22AC
:100D1A00E4FFFEC2A2755904D559FDD2A275590F36
:100D2A00D559FDA2A2E433FDA806088002C333D830
:0F0D3A00FC42077559A4D559FD000EBE08D522FD
:100A0B00E4F50BF50C120D498F0A1211D5E50A60AE
:100A1B00417FCC120E4D7F44120E4D1211A4120DBC
:100A2B00498F0A1211D5E50A60287FCC120E4D7F33
:100A3B00BE120E4D120D1AAC07120D1A750B008F4C
:100A4B000CE50C750C00F50BAF04EF420CAE0BAFC5
:060A5B000C22E4FEFF2264
:100C3B008F538D54120D498F551211D5E5556014F4
:100C4B007FCC120E4D7F4E120E4DAF53120E4DAF89
:100C5B0054120E4D120D498F551211D5E555600AE0
:0B0C6B007FCC120E4D7F48120E4D2270
:0E117A007E01EFD3940040031F80F7DEF522C4
:100F6B00E4FDFCC3ED9FEC9E5015E4FBFA0BBB00BC
:100F7B00010ABA03F8BB98F50DBD00010C80E42201
:10107D007D70EF1FAA0670011E4A6008AC051DECBD
:05108D0060F080F82274
:0D11A4007FD97EAB7D49DDFEDEFADFF6224D
:0A11D5007F157E82DEFEDFFA0022A5
:100F8B00D2907F0112117AD2917F0512117AC29001
:0C0F9B007F0512117AC2917F0202117AC8
:10109200C2907F0112117AD2917F0512117AD290F9
:0510A2007F0502117A38
:100DF9007572FA7F0112117AD2917F0112117AA2CA
:100E09009030D70D1572A290E57270F5121092D339
:0A0E1900227F0112117AC291C32258
:1010A700C2907F0312117AD2917F0512117AC291F1
:0510B7007F0202117A26
:1010BC00D2907F0312117AD2917F0512117AC291CC
:0510CC007F0202117A11
:100A61008F5BE4F55CAF5CE55BA807088002C333EC
:100A7100D8FC30E704D2908002C2907F0112117A33
:100A8100D2917F0512117AC291055CE55CC394088D
:100A910040D37F0212117AD2907F0212117AD29141
:100AA1007F0312117A309004C2008002D200C291F9
:050AB1007F0202117A32
:100B4800E4F55DD290F55E7F0112117AC2917F05BE
:100B580012117AD2917F0212117AE55D25E0F55DD6
:100B6800309002055D7F0212117A055EE55EC3943E
:0D0B78000840D4C2917F0212117AAF5D22B5
:100C76008F5F120F8B7F90120A612000037F002284
:100C8600E55F4440FF120A612000037F0022120F35
:100C96008B7F91120A612000037F0022120B488F7E
:0A0CA600601210BC121092AF602221
:100FC1008F618D62120F8B7FA0120A61AF61120ACD
:090FD10061AF62120A6102109284
:100E72008F63120F8B7FA0120A61AF63120A611295
:100E82000F8B7FA1120A61120B488F641210BC12E1
:050E92001092AF642284
:0D11B100E4F5C7F5C5F5C675C380F5C42289
:10100C0075C78275C5018FC48EC375C65A75C6A5C2
:07101C0000AFC21211B12266
:1010510075C78275C5028FC48EC38DC275C65A7598
:06106100C6A5000211B15A
:1010D10075C78275C5038FC48EC375C65A75C6A5FB
:0410E100000211B147
:0F113F0030313233343536373839203A2E2D00DF
:100FDA00E4F580C2B5D2B6D2B47F01FE120F6BE53A
:090FEA0080339202C2B4A202227B
:100CE9008F0E8D0F120FDA40FBE50F24FF92B5C26C
:100CF900B6C2B40000850E807F017E00120F6BD250
:100D0900B47F017E00120F6BC2B47F017E00020F17
:010D19006B6E
:100E2300E4FD7F30120CE9E4FD7F02120CE9E4FDDE
:100E33007F06120CE9E4FD7F0C120CE9E4FD7F014F
:0A0E4300120CE9E4FD7F80020CE9C7
:10094D008B458A468947EF7007ED2480F548801E58
:10095D00BF0107ED2490F5488014BF0207ED2488F0
:10096D00F548800AEF64037038ED2498F548E4FDEE
:10097D00AF48120CE97F017E00120F6BAB45AA4602
:10098D00A947120003FF60197D01120CE97F027E59
:10099D0000120F6B74012547F547E43546F5468087
:0209AD00DB224B
:100B85008B65EF7007ED2480F566801CBF0107EDCE
:100B95002490F5668012BF0207ED2488F56680086B
:100BA500BF0305ED2498F566E4FDAF66120CE97FF9
:0D0BB500017E00120F6B7D01AF65020CE99F
:0511F5007D01020CE980
:0E118800E4FD7F01120CE97F057E00020F6B73
:1009AF008B198A1A891BEF7007ED2480F51D801EA5
:1009BF00BF0107ED2490F51D8014BF0207ED2488B9
:1009CF00F51D800AEF64037032ED2498F51DE4FDE8
:1009DF00AF1D801BAF1C151CEF6020AB19051BE56D
:1009EF001BAA1A7002051A14F9120003FF7D0112D7
:0C09FF000CE97F017E00120F6B80D922F2
:0911DF00EB90113F93FB020B851C
:0B11CA00EF90113F93FF7D01020CE944
:100D7600EF7007ED2480F50D801CBF0107ED249070
:100D8600F50D8012BF0207ED2488F50D8008BF031C
:0D0D960005ED2498F50DE4FDAF0D020CE90C
:100780008B408A4189428C438D44C3E54364809405
:1007900080500FC3E49544F544E49543F543742D2C
:1007A0008008AB40AA41A9427420120049AE43AF71
:1007B000447C007D641200D2EF2430FFAB40054240
:1007C000E54270020541F9AA41EF120049AE43AF7C
:1007D000447C007D641200D28C438D44AE43AF4410
:1007E0007C007D0A1200D2EF2430FFAB400542E5C9
:1007F0004270020541F9AA41EF120049AE43AF44ED
:100800007C007D0A1200D28C438D44E5442430FFE5
:10081000AB400542E54270020541F9AA41EF0200F2
:01082000498E
:10102300ED24FF92B5C2B6C2B48FA0D2B47F057EC1
:0710330000120F6BC2B42292
:100F0500E4FD7F38121023E4FD7F08121023E4FD71
:100F15007F01121023E4FD7F06121023E4FD7F0FED
:030F250002102394
:100B02008D498B4A8A4B894CE549D3940F5036EF75
:100B120094015031EF7006E54924808004E54924B0
:100B2200C0FFE4FD121023AB4AAA4BA94C120003EA
:100B3200FF60127D011210237401254CF54CE4353F
:060B42004BF54B80E2229E
:100DCE008D678B68E567D3940F501FEF9401501A0F
:100DDE00EF7006E56724808004E56724C0FFE4FD1C
:0B0DEE001210237D01AF6812102322B9
:0E119600E4FD7F011210237F057E00020F6B27
:1010E500E4F508F509120E23120A0B8E088F091272
:0410F50006CD80F4B0
:100FF3008F698D6A120F8B7FD0120A61AF69120A53
:0910030061AF6A120A6102109249
:100E97008F6B120F8B7FD0120A61AF6B120A611230
:100EA7000F8B7FD1120A61120B488F6C1210BC1284
:050EB7001092AF6C2257
:100F2800E4FD7F6B120FF37D077F19120FF37D0627
:100F38007F1A120FF37D187F1B120FF37D017F1CA0
:030F4800020FF3A2
:100EE1008F6D120E978F6EE56D04FF120E97AD0791
:100EF100AF6EEF3395E0EFFEED3395E0FCE42DFFAF
:040F0100EE3CFE22A2
:100BFF008F6F8D70AF03AE027C007D401200D27BF1
:100C0F00007A00792AAD07AC06120780AD70AF6F7E
:100C1F00120D76AF2A1211F5AF2B1211F5AF2C1260
:0C0C2F0011F5AF2D1211F57F200211F518
:0C0F5400C101023400000436000000005F
:10103A00D2A77F1412117AC2A730A6FDD28E30A68B
:07104A00033001FAC28E22FF
:100BC200AF8DEFFEAD8B7C00E42DF535EC3EF534B8
:100BD200E4F58DF58BAC34AD351203927B9A7A999C
:100BE20079D9783F1201E7E4FBFA79C87842120218
:0D0BF200F01203CB8F398E388D378C3622F0
:10045A008F2E8D2FE47FBC7E02FDFCAB33AA32A91E
:10046A0031A830C31201D6500330011DC201AD2F8D
:10047A00AF2E120D767F0D1211CA7F0C1211CA7F90
:10048A000D1211CA7F0D0211CAAD2FAF2E120D76B1
:10049A00E47BE87A03F9F8AF33AE32AD31AC30120F
:1004AA000144AC00AD01AE02AF03E47B64FAF9F893
:1004BA00120144EF2430FF1211F57F0C1211CAE425
:1004CA007BE87A03F9F8AF33AE32AD31AC301201C2
:1004DA0044AC00AD01AE02AF03E47B64FAF9F81252
:1004EA000144AC00AD01AE02AF03E47B0AFAF9F8AD
:1004FA00120144EF2430FF1211F5E47BE87A03F984
:10050A00F8AF33AE32AD31AC30120144AC00AD01BC
:10051A00AE02AF03E47B0AFAF9F8120144AC00AD6B
:10052A0001AE02AF03E47B0AFAF9F8120144EB24A4
:06053A0030FF1211F52252
:030000000208C132
:0C08C100787FE4F6D8FD7581720209080A
:0A0F6000013A00053BFD000001000E
:0611EF0053070F8F3A22A6
:100821008B218A228923E4F524F525F526F527ABCA
:1008310021AA22A923AF2705278F827583001200E1
:100841001C70ECE4F524E524B4040BE53A333333AE
:1008510054F8F5268015E524B40208E5272403F5AC
:10086100268008743B2524F8E6F526E5266225FF57
:1008710012115D7F017E00120F6B0524E524C394E4
:100881000540C3E4F524E524C395275020AB21AAF4
:1008910022A92385248275830012001CFF62251280
:1008A100115D7F017E00120F6B052480D9AF2512E7
:1008B100115D7F327E00120F6B7F327E00020F6B63
:10111F00438902758C9C758A9CD2AFD2A9D28C223E
:10112F00438910758D3C758BB0D2AFD2ABD28E2266
:100FA700758911758C3C758AB0758D3C758BB0D27F
:0A0FB7008CC28ED2ABD2A9D2AF22B9
:0711E800D2AFD2A8D2882289
:10106700759850758920E4F587758DFD758BFDD2D0
:061077008ED2AFD2AC22C4
:0F114E00759A50759CFD758E1175AF01D2AF2249
:0C11BE00C2AC8F993099FDC299D2AC22CE
:100EBC008B568A578958AB56AA57A958120003600B
:100ECC00130558E5587002055714F9120003FF1268
:050EDC0011BE80E222BE
:1010F900538EF7759A50538EFB759CFD438E10D213
:04110900ACD2AF2293
:0F115D00C2AC8F9BE59A30E1FB539AFDD2AC22D6
:1008CD000210E5E493A3F8E493A34003F68001F24C
:1008DD0008DFF48029E493A3F85407240CC8C3332C
:1008ED00C4540F4420C8834004F456800146F6DFFB
:1008FD00E4800B0102040810204080900F4BE47E31
:10090D00019360BCA3FF543F30E509541FFEE493EF
:10091D00A360010ECF54C025E060A840B8E493A3B6
:10092D00FAE493A3F8E493A3C8C582C8CAC583CAE1
:10093D00F0A3C8C582C8CAC583CADFE9DEE780BE99
:010F6A000086
:10000300BB010689828A83E0225002E722BBFE02FB
:09001300E32289828A83E493222E
:10001C00BB010CE58229F582E5833AF583E0225099
:10002C0006E92582F8E622BBFE06E92582F8E222E3
:0D003C00E58229F582E5833AF583E49322FD
:10004900BB010689828A83F0225002F722BBFE0196
:02005900F32290
:10005B00F8BB010DE58229F582E5833AF583E8F0DB
:10006B00225006E92582C8F622BBFE05E92582C887
:02007B00F2226F
:10007D00BC000BBE0029EF8DF084FFADF022E4CC67
:10008D00F875F008EF2FFFEE33FEEC33FCEE9DEC30
:10009D00984005FCEE9DFE0FD5F0E9E4CEFD22ED76
:1000AD00F8F5F0EE8420D21CFEADF075F008EF2FC0
:1000BD00FFED33FD4007985006D5F0F222C398FDB1
:0500CD000FD5F0EA224E
:1000D200C2D5EC30E709B2D5E4C39DFDE49CFCEE49
:1000E20030E715B2D5E4C39FFFE49EFE12007DC344
:1000F200E49DFDE49CFC800312007D30D507C3E43F
:060102009FFFE49EFE22B7
:1001080075F008758200EF2FFFEE33FECD33CDCCAE
:1001180033CCC58233C5829BED9AEC99E582984031
:100128000CF582EE9BFEED9AFDEC99FC0FD5F0D60E
:10013800E4CEFBE4CDFAE4CCF9A88222B800C1B938
:100148000059BA002DEC8BF084CFCECDFCE5F0CB76
:10015800F97818EF2FFFEE33FEED33FDEC33FCEBAF
:1001680033FB10D703994004EB99FB0FD8E5E4F96A
:10017800FA227818EF2FFFEE33FEED33FDEC33FC57
:10018800C933C910D7059BE99A4007EC9BFCE99A4B
:10019800F90FD8E0E4C9FAE4CCFB2275F010EF2F90
:1001A800FFEE33FEED33FDCC33CCC833C810D70790
:1001B8009BEC9AE899400AED9BFDEC9AFCE899F8CB
:0E01C8000FD5F0DAE4CDFBE4CCFAE4C8F9225E
:1001D600EB9FF5F0EA9E42F0E99D42F0E89C45F07F
:0101E60022F6
:1001E700EC4D6011E8497017ED33EC3304600DE412
:1001F700FCFFFEFD22E933E8330470F802043712EE
:10020700040258046009E4CC2481500628500902EE
:10021700044128400302043EC0E0EB4A7044B98021
:1002270006D0E0FB02042DEF4E701CBD8008EBFFEB
:10023700EAFEE9FD80EBE98DF0A4FEE5F00202D0CD
:10024700E9CDF9EAFEEBFFEF89F0A4FCE5F0CE89F2
:10025700F0A42EFFE435F0CD89F0A42DFEE435F0AF
:100267008067EF4E7005BD80D780C3EF8BF0A4ACDD
:10027700F0EE8BF0A42CFCE435F0F8EF8AF0A42C18
:10028700E5F038FCE433CB8DF0A42CFCE5F03BF82B
:10029700EE8AF0A42CFCE5F038F8E433CF89F0A41B
:1002A7002CFCE5F038CF3400CE89F0A42FFFE5F021
:1002B7003EFEE433C98DF0A42EFEE5F039CD8AF079
:1002C700A42FFFE5F03EFEE43DFD33D0E0FB5007F1
:1002D7000BBB000F020441EC2CFCEF33FFEE33FEA7
:0602E700ED33FD020419D5
:1002ED00020441EC5D046005E85904700302043713
:1002FD00120402580460F6EC4860F2EC7004FDFE46
:10030D00FF22C860DB2481C85009C39860025006E3
:10031D0002043E9850CAF582E9294B4A7005AB821A
:10032D0002042D75F0007C1A7880C3EF9BEE9AEDD8
:10033D0099400DC3EF9BFFEE9AFEED99FDE842F05B
:10034D00DC23ACF0D0E0FFD0E0FED0E0FDAB8220AE
:10035D00E7101BEB60BAEC2CFCEF33FFEE33FEED38
:10036D0033FD020419E803F830E705C0F075F0001D
:10037D00EF2FFFEE33FEED33FD40B830E7C280AA1C
:10038D0075F020800E75F010800575F0087D007EEB
:10039D00007F003392D530D50312044CEC3340105E
:1003AD00EF33FFEE33FEED33FDEC33FCD5F0ED22F4
:0E03BD00E5F0247EA2D513CC92E7CDCEFF2230
:1003CB00EDD2E7CD33EC3392D524814006E4FFFE2A
:1003DB00FDFC22FCE4CFCECDCC24E0501174FF8089
:1003EB00EDC3CC13CCCD13CDCE13CECF13CF047026
:0703FB00F030D5DE02044CD6
:10040200E9D2E7C933E833F892D5EDD2E7CD33EC40
:0704120033FC5002B2D522B9
:10041900EC30E7100FBF000C0EBE00080DBD000444
:100429000BEB6014A2D5EB13FCED92E7FD2274FFF0
:10043900FCFDFEFF22E480F8A2D574FF13FC7D8049
:03044900E480EF5D
:0E044C00C3E49FFFE49EFEE49DFDE49CFC22C1
:00000001FF
